{
  "contractName": "CrowdFundingStorage",
  "abi": [
    {
      "inputs": [
        {
          "internalType": "uint256",
          "name": "",
          "type": "uint256"
        },
        {
          "internalType": "address",
          "name": "",
          "type": "address"
        }
      ],
      "name": "isParticipate",
      "outputs": [
        {
          "internalType": "bool",
          "name": "",
          "type": "bool"
        }
      ],
      "stateMutability": "view",
      "type": "function"
    },
    {
      "inputs": [],
      "name": "numCampaigns",
      "outputs": [
        {
          "internalType": "uint256",
          "name": "",
          "type": "uint256"
        }
      ],
      "stateMutability": "view",
      "type": "function"
    }
  ],
  "bytecode": "0x608060405234801561001057600080fd5b5060fc8061001f6000396000f3fe6080604052348015600f57600080fd5b506004361060325760003560e01c80632c0f7b6f146037578063728dda19146052575b600080fd5b603f60005481565b6040519081526020015b60405180910390f35b607d605d366004608c565b600360209081526000928352604080842090915290825290205460ff1681565b60405190151581526020016049565b60008060408385031215609e57600080fd5b8235915060208301356001600160a01b038116811460bb57600080fd5b80915050925092905056fea2646970667358221220747609abdfd31034a3ee4bcea5a9801fe3c0bd7fcf11f0cd9483a75d55e559e164736f6c634300080e0033",
  "immutableReferences": {},
  "source": "// SPDX-License-Identifier: MIT\npragma solidity 0.8.14;\n\ncontract CrowdFundingStorage {\n    struct Campaign {\n        uint numFunders;\n        uint fundingGoal;\n        uint totalAmount;\n        address payable receiver;\n    }\n\n    struct Funder {\n        address addr;\n        uint amount;\n    }\n\n    uint public numCampaigns;\n    mapping(uint => Campaign) campaigns;\n    mapping(uint => Funder[]) funders;\n\n    mapping(uint => mapping(address => bool)) public isParticipate;\n}\n\ncontract CrowdFunding is CrowdFundingStorage {\n    address immutable owner;\n\n    constructor() {\n        owner = msg.sender;\n    }\n\n    modifier judgeParticipate(uint campaignID) {\n        require(isParticipate[campaignID][msg.sender] == false);\n        _;\n    }\n\n    modifier isOwner() {\n        require(msg.sender == owner);\n        _;\n    }\n\n    function newCampaign(address payable receiver, uint goal) external isOwner returns(uint campaignID) {\n        campaignID = numCampaigns++;\n        Campaign storage c = campaigns[campaignID];\n        c.receiver = receiver;\n        c.fundingGoal = goal; \n    }\n\n    function bid(uint campaignID) external payable judgeParticipate(campaignID) {\n        Campaign storage c = campaigns[campaignID];\n\n        c.totalAmount += msg.value;\n        c.numFunders += 1;\n    \n        funders[campaignID].push(Funder({\n            addr: msg.sender,\n            amount: msg.value\n        }));\n\n        isParticipate[campaignID][msg.sender] = true; \n    }\n\n    function withdraw(uint campaignID) external returns(bool reached) {\n        Campaign storage c = campaigns[campaignID];\n\n        if (c.totalAmount < c.fundingGoal) {\n            return false;\n        }\n\n        uint amount = c.totalAmount;\n        c.totalAmount = 0;\n        c.receiver.transfer(amount);\n\n        return true;\n    }\n}",
  "sourcePath": "/Users/charlielee/GitProjects/first-contract/contracts/CrowdFunding.sol",
  "compiler": {
    "name": "solc",
    "version": "0.8.14+commit.80d49f37.Emscripten.clang"
  },
  "schemaVersion": "3.4.5",
  "updatedAt": "2022-06-18T06:21:25.727Z",
  "devdoc": {
    "kind": "dev",
    "methods": {},
    "version": 1
  },
  "userdoc": {
    "kind": "user",
    "methods": {},
    "version": 1
  }
}