{
  "contractName": "CrowdFunding",
  "abi": [
    {
      "inputs": [],
      "stateMutability": "nonpayable",
      "type": "constructor"
    },
    {
      "inputs": [
        {
          "internalType": "uint256",
          "name": "",
          "type": "uint256"
        },
        {
          "internalType": "address",
          "name": "",
          "type": "address"
        }
      ],
      "name": "isParticipate",
      "outputs": [
        {
          "internalType": "bool",
          "name": "",
          "type": "bool"
        }
      ],
      "stateMutability": "view",
      "type": "function",
      "constant": true
    },
    {
      "inputs": [],
      "name": "numCampaigns",
      "outputs": [
        {
          "internalType": "uint256",
          "name": "",
          "type": "uint256"
        }
      ],
      "stateMutability": "view",
      "type": "function",
      "constant": true
    },
    {
      "inputs": [
        {
          "internalType": "address payable",
          "name": "receiver",
          "type": "address"
        },
        {
          "internalType": "uint256",
          "name": "goal",
          "type": "uint256"
        }
      ],
      "name": "newCampaign",
      "outputs": [
        {
          "internalType": "uint256",
          "name": "campaignID",
          "type": "uint256"
        }
      ],
      "stateMutability": "nonpayable",
      "type": "function"
    },
    {
      "inputs": [
        {
          "internalType": "uint256",
          "name": "campaignID",
          "type": "uint256"
        }
      ],
      "name": "bid",
      "outputs": [],
      "stateMutability": "payable",
      "type": "function",
      "payable": true
    },
    {
      "inputs": [
        {
          "internalType": "uint256",
          "name": "campaignID",
          "type": "uint256"
        }
      ],
      "name": "withdraw",
      "outputs": [
        {
          "internalType": "bool",
          "name": "reached",
          "type": "bool"
        }
      ],
      "stateMutability": "nonpayable",
      "type": "function"
    }
  ],
  "bytecode": "0x60a060405234801561001057600080fd5b5033608052608051610414610030600039600061028d01526104146000f3fe60806040526004361061004a5760003560e01c80632c0f7b6f1461004f5780632e1a7d4d14610078578063454a2ab3146100a8578063728dda19146100bd578063f7572cf3146100f8575b600080fd5b34801561005b57600080fd5b5061006560005481565b6040519081526020015b60405180910390f35b34801561008457600080fd5b5061009861009336600461030a565b610118565b604051901515815260200161006f565b6100bb6100b636600461030a565b610194565b005b3480156100c957600080fd5b506100986100d836600461033b565b600360209081526000928352604080842090915290825290205460ff1681565b34801561010457600080fd5b5061006561011336600461036b565b610280565b6000818152600160208190526040822090810154600282015410156101405750600092915050565b600281018054600091829055600383015460405191926001600160a01b039091169183156108fc0291849190818181858888f19350505050158015610189573d6000803e3d6000fd5b506001949350505050565b6000818152600360209081526040808320338452909152902054819060ff16156101bd57600080fd5b6000828152600160205260408120600281018054919234926101e09084906103ad565b9091555050805460019082906000906101fa9084906103ad565b90915550505060008281526002602081815260408084208151808301835233808252348286019081528354600180820186559489528689209351970290920180546001600160a01b0319166001600160a01b03909716969096178655905194820194909455958452600382528084209284529190529020805460ff191690921790915550565b6000336001600160a01b037f000000000000000000000000000000000000000000000000000000000000000016146102b757600080fd5b6000805490806102c6836103c5565b9091555060008181526001602081905260409091206003810180546001600160a01b0319166001600160a01b03979097169690961790955593909301919091555090565b60006020828403121561031c57600080fd5b5035919050565b6001600160a01b038116811461033857600080fd5b50565b6000806040838503121561034e57600080fd5b82359150602083013561036081610323565b809150509250929050565b6000806040838503121561037e57600080fd5b823561038981610323565b946020939093013593505050565b634e487b7160e01b600052601160045260246000fd5b600082198211156103c0576103c0610397565b500190565b6000600182016103d7576103d7610397565b506001019056fea26469706673582212205da53cae10dd6e4e5205a811da59b03ff2aa5092bf62df0518ea212e1b1b9e1a64736f6c634300080e0033",
  "immutableReferences": {
    "39": [
      {
        "length": 32,
        "start": 653
      }
    ]
  },
  "source": "// SPDX-License-Identifier: MIT\npragma solidity 0.8.14;\n\ncontract CrowdFundingStorage {\n    struct Campaign {\n        uint numFunders;\n        uint fundingGoal;\n        uint totalAmount;\n        address payable receiver;\n    }\n\n    struct Funder {\n        address addr;\n        uint amount;\n    }\n\n    uint public numCampaigns;\n    mapping(uint => Campaign) campaigns;\n    mapping(uint => Funder[]) funders;\n\n    mapping(uint => mapping(address => bool)) public isParticipate;\n}\n\ncontract CrowdFunding is CrowdFundingStorage {\n    address immutable owner;\n\n    constructor() {\n        owner = msg.sender;\n    }\n\n    modifier judgeParticipate(uint campaignID) {\n        require(isParticipate[campaignID][msg.sender] == false);\n        _;\n    }\n\n    modifier isOwner() {\n        require(msg.sender == owner);\n        _;\n    }\n\n    function newCampaign(address payable receiver, uint goal) external isOwner returns(uint campaignID) {\n        campaignID = numCampaigns++;\n        Campaign storage c = campaigns[campaignID];\n        c.receiver = receiver;\n        c.fundingGoal = goal; \n    }\n\n    function bid(uint campaignID) external payable judgeParticipate(campaignID) {\n        Campaign storage c = campaigns[campaignID];\n\n        c.totalAmount += msg.value;\n        c.numFunders += 1;\n    \n        funders[campaignID].push(Funder({\n            addr: msg.sender,\n            amount: msg.value\n        }));\n\n        isParticipate[campaignID][msg.sender] = true; \n    }\n\n    function withdraw(uint campaignID) external returns(bool reached) {\n        Campaign storage c = campaigns[campaignID];\n\n        if (c.totalAmount < c.fundingGoal) {\n            return false;\n        }\n\n        uint amount = c.totalAmount;\n        c.totalAmount = 0;\n        c.receiver.transfer(amount);\n\n        return true;\n    }\n}",
  "sourcePath": "/Users/charlielee/GitProjects/first-contract/contracts/CrowdFunding.sol",
  "compiler": {
    "name": "solc",
    "version": "0.8.14+commit.80d49f37.Emscripten.clang"
  },
  "schemaVersion": "3.4.5",
  "updatedAt": "2022-06-18T06:52:35.552Z",
  "networkType": "ethereum",
  "devdoc": {
    "kind": "dev",
    "methods": {},
    "version": 1
  },
  "userdoc": {
    "kind": "user",
    "methods": {},
    "version": 1
  }
}